:1000000045C0000060C000005EC000005CC0000091
:100010005AC0000058C0000056C0000054C0000084
:1000200052C0000050C000004EC000004CC0000094
:100030004AC0000070C2000046C0000044C000007A
:1000400042C0000040C000003EC000003CC00000B4
:100050003AC0000038C0000036C0000034C00000C4
:1000600032C0000030C000002EC000002CC00000D4
:100070002AC0000028C0000026C0000024C00000E4
:1000800022C0000020C000001EC0000011241FBEBE
:10009000CFEFD0E4DEBFCDBF11E0A0E0B1E0E4E2FD
:1000A000FEE000E00BBF02C007900D92AE30B1073A
:1000B000D9F721E0AEE0B1E001C01D92A733B2074D
:1000C000E1F75FD3ADC69CCF8130910509F43FC005
:1000D0001CF4892B51F068C08230910509F446C0A8
:1000E0008330910509F451C05FC0809105018111F1
:1000F0000DC080911E01882339F181E080931F019A
:1001000080E78093000181E090E00895833069F4F6
:1001100080911E018823C1F082E080931F0182E359
:100120008093000182E090E00895813069F480912D
:100130001E01882349F083E080931F018CE38093A4
:10014000000183E090E0089510921F012FC02091DC
:100150001C0130910001231720F42F5F20931C0114
:10016000089510921F0110921E0120C020911C01C1
:1001700030910001231720F42F5F20931C01089574
:1001800010921F0110921E0111C020911C0130918C
:100190000001231720F42F5F20931C010895109273
:1001A0001F0110921E0102C010921F0110921C012B
:1001B00080E090E0089581309105D1F01CF4892B06
:1001C00039F045C08230910519F1039789F13FC09C
:1001D00080911F01823009F46CC0833009F478C02B
:1001E00031E020E0813009F030E0832F922F31C0E0
:1001F00080911F01823009F45CC0833009F468C02B
:1002000031E020E0813009F030E0832F922F21C0CF
:1002100080911F01823009F44CC0833009F458C02A
:1002200031E020E0813009F030E0832F922F11C0BF
:1002300080911F018230E9F1833009F449C031E037
:1002400020E0813009F030E0832F922F02C080E05F
:1002500090E081309105C9F01CF4009749F00895B1
:100260008230910531F18330910509F03FC030C0F3
:1002700028B1236028B9E6E7F1E03197F1F700C033
:10028000000028B12C7F28B9089528B1236028B92F
:10029000E9EFF0E03197F1F700C000004098E2E1AB
:1002A000F1E03197F1F700C0000028B12C7F28B9A8
:1002B000089588B1836088B989EF90E00197F1F7DC
:1002C00000C0000088B18C7F88B982E090E008957A
:1002D00088B1836088B9E3EFF1E03197F1F700C0AE
:1002E000000088B18C7F88B983E090E008951816EB
:1002F00019065CF00895000021503109E1F74F5FC5
:100300005F4F4817590729F4089540E050E077E01F
:1003100063E0272F362FEFCF289882B9299A000063
:10032000299882E090E0E3CF089581E0F5CF089529
:1003300084E690E0DCDF88E3EFDF86E0EDDF8FE04E
:10034000EBDF81E0E9DF8AE090E0D1CF0895289AE1
:1003500082B9299A0000299881E090E0C8CF0895D9
:10036000813118F48158D8CF08958155D5CF08959B
:100370000F931F93CF93DF93182FEB01D6DF888164
:10038000882351F001E0010F812FEADF8991DFDF3F
:10039000102F88818111F6CFDF91CF911F910F919E
:1003A0000895892B21F4109219011092180159987F
:1003B00083EF91E00197F1F700C00000599A83ECB8
:1003C00099E00197F1F700C00000599880E89EE39A
:1003D000489B0AC020911801309119012F5F3F4FAF
:1003E0003093190120931801019791F7209118017A
:1003F00030911901AFE0BAEE3BD20024880F991F6B
:10040000001C880F991F001C892F902D90931901B3
:10041000809318019F938F938AE091E09F938F932D
:100420008EE091E09F938F9332D26EE071E081E095
:100430009FDF0F900F900F900F900F900F9080E024
:1004400090E00895CF92DF92EF92FF921F93CF93A7
:10045000DF9310921D0180912001882309F453C07D
:1004600080E01BE0C0912501D0912601189FC00DAE
:10047000D11D11244D815E816F81788589819A819A
:10048000AB81BC81481759076A077B07B0F08881A8
:10049000E985FA85082E000C990B099588838091CF
:1004A0001D01E0912501F0912601189FE00DF11D3D
:1004B0001124158216821782108680911D01E09109
:1004C0002501F0912601189FE00DF11D1124C58032
:1004D000D680E780F0844091060150910701609139
:1004E0000801709109014C0D5D1D6E1D7F1D458336
:1004F0005683678370878F5F80931D0190912001E1
:10050000891708F4AFCFDF91CF911F91FF90EF9043
:10051000DF90CF9008951F920F920FB60F92112483
:100520000BB60F922F933F934F935F936F937F93ED
:100530008F939F93AF93BF93EF93FF93809121018C
:1005400090912201A0912301B09124010197A1096A
:10055000B1098093210190932201A0932301B093CC
:100560002401892B8A2B8B2B89F46CDF8091060167
:1005700090910701A0910801B09109018093210198
:1005800090932201A0932301B0932401FF91EF9156
:10059000BF91AF919F918F917F916F915F914F919B
:1005A0003F912F910F900BBE0F900FBE0F901F9099
:1005B00018958BE0809381008DE790E090938900FF
:1005C0008093880082E080936F00109285001092E3
:1005D00084008091060190910701A0910801B091DB
:1005E00009018093210190932201A0932301B093EC
:1005F00024018FB780688FBF0895443090F5641749
:1006000059F1262F30E0241B3109F901FF2324F48E
:10061000EE27FF27E21BF30B329731F421E0FC01B8
:100620002083218322E019C0262F062E000C330BD5
:10063000241B310947FD33952130310521F061112B
:1006400007C0433029F423E0FC01208321E005C0EA
:1006500021E0FC01208301C020E0FC01E20FF11D3C
:100660001082089582309105A9F03CF4009709F4B6
:100670003FC08130910549F068C083309105B9F0E1
:100680008430910509F466C060C020911E012223C8
:10069000C9F00895E0911B01E43050F5F0E0EF5F00
:1006A000FE4F8081882324F181E090E008958091BD
:1006B0001A01883008F04CC08F5F80931A0181E0E6
:1006C00090E0089580911B018F5F80931B01E82FBC
:1006D000F0E0EF5FFE4F9081992374F1843078F55C
:1006E0009093050181E080931E0182E090E00895DF
:1006F000E1E0F1E08FEF808381838283838384E074
:1007000080931B01E0911A01E830E0F4F0E0EE0F75
:10071000FF1FE95DFE4F4181608181E091E06DDF67
:1007200010921B01809101018093050181E080936B
:100730001E0183E090E0089582E090E0089582E059
:1007400090E0089583E090E0089580E090E00895BF
:1007500084E090E00895E7E2F1E0108211821282D5
:1007600091E09383948382E08583868323E02783CB
:1007700020871186128693879487858786872787A7
:100780000895CF93DF93CDB7DEB7AC970FB6F8944B
:10079000DEBF0FBECDBF8FEF81B912B893E094B921
:1007A00015B887B918B88AEA8AB91BB8C1DDD3DF92
:1007B00044E060E081E091E020DF84E0809320016C
:1007C000CE0101969093260180932501198284E140
:1007D00090E0A0E0B0E08A839B83AC83BD838E83EE
:1007E0009F83A887B9872BED30E03B872A871C863B
:1007F0008D879E87AF87B88B898B9A8BAB8BBC8B91
:1008000024E630E03E8B2D8B1F8A44E650E060E00A
:1008100070E0488F598F6A8F7B8F4C8F5D8F6E8F02
:100820007F8F22E333E039A328A31AA248EC50E0DB
:1008300060E070E04BA35CA36DA37EA38FA398A799
:10084000A9A7BAA721ED31E03CA72BA78093060109
:1008500090930701A0930801B093090180932101AF
:1008600090932201A0932301B0932401A2DEFFCF35
:10087000A29FB001B39FC001A39F700D811D1124E1
:10088000911DB29F700D811D1124911D08950F932C
:100890001F93CF93DF93CDB7DEB72E970FB6F894A3
:1008A000DEBF0FBECDBF0D891E8986E08C831A8303
:1008B00009838FEF9FE79E838D83AE01475E5F4F75
:1008C0006F89788DCE01019611D02F813885F8017E
:1008D000E20FF31F10822E960FB6F894DEBF0FBE04
:1008E000CDBFDF91CF911F910F9108952F923F922D
:1008F0004F925F926F927F928F929F92AF92BF9230
:10090000CF92DF92EF92FF920F931F93CF93DF93DB
:10091000CDB7DEB72C970FB6F894DEBF0FBECDBFB4
:100920007C016B018A01FC0117821682838181FFA1
:10093000B0C1CE0101964C01F7019381F60193FD00
:10094000859193FF81916F01882309F49EC18532BF
:1009500039F493FD859193FF81916F01853221F4E4
:10096000B70190E0C7D1E8CF512C312C20E02032E4
:10097000A0F48B3269F030F4803259F0833269F49C
:1009800020612CC08D3239F0803339F4216026C0CB
:100990002260246023C0286021C027FD27C030EDDD
:1009A000380F3A3078F426FF06C0FAE05F9E300D2B
:1009B0001124532E13C08AE0389E300D1124332E9B
:1009C00020620CC08E3221F426FD5FC1206406C077
:1009D0008C3611F4206802C0883641F4F60193FD8C
:1009E000859193FF81916F018111C1CF982F9F7DD8
:1009F0009554933028F40C5F1F4FFFE3F9830DC02B
:100A0000833631F0833771F0833509F057C021C048
:100A1000F801808189830E5F1F4F44244394512C39
:100A2000540114C03801F2E06F0E711CF801A0806F
:100A3000B18026FF03C0652D70E002C06FEF7FEF2D
:100A4000C5012C874CD12C0183012C852F77222EB8
:100A500016C03801F2E06F0E711CF801A080B18061
:100A600026FF03C0652D70E002C06FEF7FEFC50168
:100A70002C872AD12C012C852068222E830123FC6F
:100A800019C0832D90E048165906A0F4B70180E202
:100A900090E030D13A94F5CFF50127FC859127FEFF
:100AA00081915F01B70190E025D131103A94F1E0D6
:100AB0004F1A51084114510479F7DEC0843611F001
:100AC000893631F5F80127FF07C060817181828185
:100AD00093810C5F1F4F08C060817181072E000C4D
:100AE000880B990B0E5F1F4F2F76722E97FF09C050
:100AF00090958095709561957F4F8F4F9F4F20689F
:100B0000722E2AE030E0A4012DD1A82EA81843C0EF
:100B1000853729F42F7EB22E2AE030E025C0F22F4F
:100B2000F97FBF2E8F36C1F018F4883579F0ADC04B
:100B3000803719F0883721F0A8C02F2F2061B22EFE
:100B4000B4FE0DC08B2D8460B82E09C024FF0AC0EE
:100B50009F2F9660B92E06C028E030E005C020E146
:100B600030E002C020E132E0F801B7FE07C060814A
:100B70007181828193810C5F1F4F06C060817181FA
:100B800080E090E00E5F1F4FA401ECD0A82EA818C3
:100B9000FB2DFF777F2E76FE0BC0372D3E7FA514F1
:100BA00050F474FE0AC072FC08C0372D3E7E05C0AA
:100BB000BA2C372D03C0BA2C01C0B52C34FF0DC0A0
:100BC000FE01EA0DF11D8081803311F4397E09C0E8
:100BD00032FF06C0B394B39404C0832F867809F023
:100BE000B39433FD12C030FF06C05A2CB31418F46E
:100BF000530C5B18B32CB31460F4B70180E290E09F
:100C00003C8778D0B3943C85F6CFB31410F43B18EE
:100C100001C0312C34FF11C0B70180E390E03C8764
:100C200069D03C8532FF16C031FD03C088E790E0F3
:100C300002C088E590E0B7010CC0832F867851F0A0
:100C400031FF02C08BE201C080E237FD8DE2B701C7
:100C500090E050D0A51430F4B70180E390E04AD082
:100C60005A94F8CFAA94F401EA0DF11D8081B701DE
:100C700090E040D0A110F6CF332009F45DCEB7014B
:100C800080E290E037D03A94F7CFF70186819781E0
:100C900002C08FEF9FEF2C960FB6F894DEBF0FBE09
:100CA000CDBFDF91CF911F910F91FF90EF90DF901B
:100CB000CF90BF90AF909F908F907F906F905F90FC
:100CC0004F903F902F900895FC0105906150704027
:100CD0000110D8F7809590958E0F9F1F0895FC0105
:100CE0006150704001900110D8F7809590958E0F5B
:100CF0009F1F08950F931F93CF93DF93FB012381D1
:100D000021FD03C08FEF9FEF28C022FF16C0468150
:100D10005781248135814217530744F4A081B18162
:100D20009D012F5F3F4F318320838C932681378134
:100D30002F5F3F4F3783268310C0EB01092F182FF9
:100D40000084F185E02D0995892BE1F68E819F8144
:100D500001969F838E83812F902FDF91CF911F91DA
:100D60000F910895FA01AA27283051F1203181F11D
:100D7000E8946F936E7F6E5F7F4F8F4F9F4FAF4FA3
:100D8000B1E03ED0B4E03CD0670F781F891F9A1FB6
:100D9000A11D680F791F8A1F911DA11D6A0F711D6A
:100DA000811D911DA11D20D009F468943F912AE076
:100DB000269F11243019305D3193DEF6CF0108955E
:100DC000462F4770405D4193B3E00FD0C9F7F6CF8F
:100DD000462F4F70405D4A3318F0495D31FD405257
:100DE000419302D0A9F7EACFB4E0A69597958795ED
:100DF00077956795BA95C9F70097610571050895CC
:100E00009B01AC010A2E0694579547953795279577
:100E1000BA95C9F7620F731F841F951FA01D08950F
:040E2000F894FFCF74
:0E0E2400FAFFFFFFFF0401000000256400003C
:00000001FF
